:100000000C9434000C9449000C9449000C94490061
:100010000C9449000C9449000C9449000C9449003C
:100020000C9449000C9449000C9449000C9449002C
:100030000C9449000C9449000C9449000C9449001C
:100040000C9449000C9449000C9449000C9449000C
:100050000C9449000C9449000C9449000C944900FC
:100060000C9449000C94490011241FBECFEFD8E036
:10007000DEBFCDBF11E0A0E0B1E0E8E1F1E002C0F9
:1000800005900D92A232B107D9F70E944B000C9453
:100090008A000C940000CF93DF9300D000D01F9211
:1000A000CDB7DEB781E089838FE090E09D838C83BC
:1000B0001B821A821DC020910201309103018A81A6
:1000C0009B81820F931FFC014081209100013091A0
:1000D00001018A819B81820F931FFC018081481757
:1000E00011F019820CC08A819B8101969B838A83BF
:1000F0002A813B818C819D8128173907E4F289810F
:10010000882F90E00F900F900F900F900F90DF913D
:08011000CF910895F894FFCF90
:100118000401130173656372657470617373776F9B
:100128007264005F5F5F5F5F5F5F5F5F5F5F5F5F1E
:020138005F0066
:00000001FF
