:020000020000FC
:10000000A0E9B0E000C04FE54DBF48E04EBF00C0E2
:1000100040E04C93AA954DE84C93AA954AE84C933E
:10002000AA954FE04C93AA9547E84C93AA9544E8CB
:100030004C93AA954FEF4C93AA9540E04C93AA9508
:1000400041E84C93AA9540ED4C93AA954EE74C930A
:10005000AA954BE74C93AA9542E04C93AA9540E0B1
:100060004C93AA9540E04C93AA954AE24C93AA95EA
:1000700048E74C93AA9545E74C93AA9547E64C93DD
:10008000AA9540E04C93AA9540E04C93AA9543E092
:100090004C93AA9542E74C93AA954FE64C93AA95A8
:1000A00049E04C93AA9540E04C93AA954CE64C93BA
:1000B000AA954EE34C93AA9540E04C93AA9540E054
:1000C0004C93AA9540E14C93AA9540E04C93AA9595
:1000D00040E04C93AA9541E24C93AA9540E04C93A2
:1000E000AA9540E04C93AA954EE34C93AA9540E024
:1000F0004C93AA9540E04C93AA954FEC4C93AA954B
:1001000040E04C93AA9540E04C93AA9500C0A0E92A
:1001100001D019C04C914A3211F40A2F08954E9122
:10012000403009F004C04E91403039F40895AF9347
:100130002C91A22FEFDFAF91F6CFAF932C91A22F8E
:0C014000E9DFAF910895A02FB0E01C9102
:00000001FF
