:020000020000FC
:100000009FE59DBF98E09EBF992700C0A4EC10E03B
:100010001C93AA9520E02C9304EC00C015EF04D0AB
:100020006FEF54EC20D005C0139504D01F3FE1F7CB
:100030000895FFCF0E35E9F309D0A80F1C930CD01B
:10004000A80F202F281B2C93081B0895A02F9C91EC
:1000500082E0A81B9C930895A02FAA959C9182E012
:10006000A81B9C930895A52F3C91AA954C913617F7
:1000700009F408955E3521F04030D9F2542FF3CFC2
:1000800030E040E00895672FEEDF542F82E0581BE8
:1000900000C0A52F9C9182E0A80F9C9383E0A81B31
:1000A0009C9182E0A80F9C93501721F018F082E0F9
:1000B000A81BEFCFA02F10E01C93AA9520E02C9353
:1000C000AA95AA950895A52F10E01C93AA9520E063
:0E00D0002C93501719F082E0581BF5CF0895BD
:00000001FF
