:100000000C9434000C9449000C9449000C94490061
:100010000C9449000C9449000C9449000C9449003C
:100020000C9449000C9449000C9449000C9449002C
:100030000C9449000C9449000C9449000C9449001C
:100040000C9449000C9449000C9449000C9449000C
:100050000C9449000C9449000C9449000C944900FC
:100060000C9449000C94490011241FBECFEFD8E036
:10007000DEBFCDBF11E0A0E0B1E0E4E8F2E002C0F5
:1000800005900D92AA31B107D9F70E9416010C9480
:1000900040010C9400000F931F93CF93DF93EC016A
:1000A0008B01DA0111961C921E9221E030E090E063
:1000B00080E0201731072CF0DF91CF911F910F9135
:1000C0000895FE01E20FF31F5081FE01E80FF91FB2
:1000D000408154130BC00196F901EE0FFF1FEA0F88
:1000E000FB1F918380832F5F3F4FE3CF009751F039
:1000F000FC01E150F048EE0FFF1FEA0FFB1F80816B
:100100009181D7CFF901EE0FFF1FEA0FFB1F11827C
:100110001082E9CF8F929F92AF92BF92CF92DF92DF
:10012000EF92FF920F931F93CF93DF9300D0CDB741
:10013000DEB77C015B012DB73EB73A832983FC0112
:1001400001900020E9F731978F01081B190BFB0183
:1001500001900020E9F731976F01C61AD70AC8014C
:10016000880F991F281B390B0FB6F8943EBF0FBE9E
:100170002DBF8DB79EB701964C01AC01B801C701E8
:100180000E944B0090E080E030E020E02C153D051F
:10019000B4F029813A810FB6F8943EBF0FBE2DBF4F
:1001A0000F900F90DF91CF911F910F91FF90EF90E3
:1001B000DF90CF90BF90AF909F908F900895F70100
:1001C000E80FF91F5081F501E20FF31F408154132E
:1001D00029C001962F5F3F4F0817190781F4422F5E
:1001E000481B40BD12BC11BCFA9AF99AFC01319728
:1001F000EE0FFF1FE80DF91D80819181C7CF2C15EF
:100200003D0524F6F701E80FF91F5081F501E20FD3
:10021000F31F4081541709F4B9CF009739F72F5FC6
:100220003F4FB4CF80179107D1F2F7CFCDB7DEB7EC
:100230006A970FB6F894DEBF0FBECDBF83E1E0E052
:10024000F1E0DE01119601900D928A95E1F787E0C9
:10025000E3E1F1E0DE01549601900D928A95E1F719
:10026000BE016F5F7F4FCE0144960E948A0090E0EE
:1002700080E06A960FB6F894DEBF0FBECDBF08953A
:04028000F894FFCF20
:100284004B6E757468204D6F727269732050726181
:0A0294007474006973205072610059
:00000001FF
