:020000020000FC
:100000000C9434000C9451000C9451000C94510049
:100010000C9451000C9451000C9451000C9451001C
:100020000C9451000C9451000C9451000C9451000C
:100030000C9451000C9451000C9451000C945100FC
:100040000C9451000C9451000C9451000C945100EC
:100050000C9451000C9451000C9453000C945100DA
:100060000C9451000C94510011241FBECFEFD8E026
:10007000DEBFCDBF11E0A0E0B1E0E0E1F1E002C001
:1000800005900D92AC30B107D9F721E0ACE0B1E0BA
:1000900001C01D92AD30B207E1F70E9482000C94BE
:1000A00086000C9400001F921FB61F9211248F939C
:1000B0009F93EF93FF9380910C0191E0980F9093A1
:1000C0000C0190E092BD81BDE0910001F091010131
:1000D000808180BDFA9AF99AE0910001F0910101C6
:1000E0008081811109C0FB98FF91EF919F918F91C1
:1000F0001F901FBE1F9018953196F0930101E09359
:100100000001F2CF1FBAFB9A7894FFCFF894FFCF8B
:0C0110000201455244595F5465737400AD
:00000001FF
