:100000000C9434000C9446000C9446000C9446006A
:100010000C9446000C9446000C9446000C94460048
:100020000C9446000C9446000C9446000C94460038
:100030000C9446000C9446000C9446000C94460028
:100040000C9446000C9446000C9446000C94460018
:100050000C9446000C9446000C9446000C94460008
:100060000C9446000C94460011241FBECFEFD8E03C
:10007000DEBFCDBF21E0A0E0B1E001C01D92A13004
:10008000B207E1F70E9448000C945C000C94000059
:1000900080E887BD84B5806484BD85B5816085BDF9
:1000A00078948FEF84B9569A06B407FEFDCF85B5D4
:0C00B000806885BD16BCF8CFF894FFCF27
:00000001FF
