:100000000C9434000C9446000C9446000C9446006A
:100010000C9446000C9446000C9446000C94460048
:100020000C9446000C9446000C9446000C94460038
:100030000C9446000C9446000C9446000C94460028
:100040000C9448000C9446000C9446000C94460016
:100050000C9446000C9446000C9446000C94460008
:100060000C9446000C94460011241FBECFEFD8E03C
:10007000DEBFCDBF21E0A0E0B1E001C01D92A13004
:10008000B207E1F70E9458000C9464000C94000041
:100090008F938FB78F9380910001809585B9809160
:1000A00000018095809300018F918FBF8F911895EB
:1000B00080916E00816080936E0085B5816085BD02
:0C00C00078948FEF84B9FFCFF894FFCF45
:00000001FF
