:100000000C9434000C943E000C943E000C943E0082
:100010000C943E000C943E000C943E000C943E0068
:100020000C943E000C943E000C943E000C943E0058
:100030000C943E000C943E000C943E000C943E0048
:100040000C9440000C943E000C943E000C943E0036
:100050000C943E000C943E000C943E000C943E0028
:100060000C943E000C943E0011241FBECFEFD8E04C
:10007000DEBFCDBF0E944A000C9458000C940000D3
:100080001F920F920FB60F9211240F900FBE0F9078
:100090001F90189514BC15BC10926E0085B5836036
:1000A00085BD80916E00816080936E007894FFCF53
:0400B000F894FFCFF2
:00000001FF
