:100000000EC015C014C013C012C011C010C00FC064
:100010000EC00DC00CC00BC00AC009C008C011241E
:100020001FBECFE5D1E0DEBFCDBF86D1A8C1E8CFEE
:10003000CF93DF93CDB7DEB780E690E024E630E0E3
:10004000FC01318320830000DF91CF910895CF938D
:10005000DF93CDB7DEB728970FB6F894DEBF0FBE9B
:10006000CDBF98878F8380E690E0FC0180819181ED
:100070009A8389838F81988529813A81820F931F82
:100080009C838B838B819C81813E910590F4898137
:100090009A819E838D838B819C819A83898380E65C
:1000A00090E029813A81FC01318320838D819E81FA
:1000B00002C080E090E028960FB6F894DEBF0FBE35
:1000C000CDBFDF91CF910895CF93DF9300D0CDB70F
:1000D000DEB79A83898300000F900F90DF91CF9154
:1000E0000895CF93DF9300D0CDB7DEB788E090E0DE
:1000F000AEDF9A83898389819A810F900F90DF9177
:10010000CF910895CF93DF9300D0CDB7DEB79A8318
:10011000898389819A81D8DF00000F900F90DF9149
:10012000CF910895CF93DF9300D000D0CDB7DEB745
:100130009C838B8388E090E08ADF9A8389838B811C
:100140009C81FC012081318189819A81FC0131836C
:1001500020838B819C81FC012281338189819A815A
:10016000FC01338322838B819C81FC0124813581B6
:1001700089819A81FC01358324838B819C81FC01D8
:10018000268189819A81FC0126838B819C81FC01D7
:10019000278189819A81FC01278389819A810F9027
:1001A0000F900F900F90DF91CF910895CF93DF9331
:1001B00000D0CDB7DEB79A83898389819A81FC010B
:1001C0008081918121E0079709F020E0822F0F9034
:1001D0000F90DF91CF910895CF93DF9300D000D09F
:1001E000CDB7DEB79C838B837CDF9A83898389813B
:1001F0009A812B813C81FC013183208389819A8102
:10020000FC01168289819A81FC01178289819A8179
:100210000F900F900F900F90DF91CF910895CF9393
:10022000DF9300D000D0CDB7DEB786E090E0D4DF1A
:100230009A83898387E090E0CFDF9C838B838981D9
:100240009A812B813C81FC013583248389819A81A9
:1002500021E0FC01278388E090E0BEDF9C018B81D8
:100260009C81FC01338322838B819C8121E0FC01F2
:10027000268389E090E0B0DF9C018B819C81FC01AA
:10028000358324838B819C8121E0FC012783898134
:100290009A810F900F900F900F90DF91CF9108955A
:1002A000CF93DF9300D000D01F92CDB7DEB79B83F2
:1002B0008A837D836C838A819B812C813D81F901B6
:1002C0000995882311F081E02FC019828A819B81D2
:1002D000FC018681882351F08A819B81FC01828107
:1002E00093812C813D81B901DBDF89838A819B81E8
:1002F000FC0187818823B9F08981882359F48A8198
:100300009B81FC01848195812C813D81B901C8DFED
:10031000882319F081E090E002C080E090E08983BA
:1003200089818170898389810F900F900F900F9040
:100330000F90DF91CF910895CF93DF9300D000D03D
:100340001F92CDB7DEB76BDF9A83898389819A814B
:1003500066ED70E0A5DF8B831D821C828B81882374
:1003600021F08BE090E09D838C8380E090E00F9003
:100370000F900F900F900F90DF91CF910895F89408
:02038000FFCFAD
:00000001FF
