:020000020000FC
:100000000EC015C014C013C012C011C010C00FC064
:100010000EC00DC00CC00BC00AC009C008C011241E
:100020001FBECFE5D1E0DEBFCDBFB0D0D5C0E8CF99
:10003000CF93DF93CDB7DEB780E690E024E630E0E3
:10004000FC01318320830000DF91CF910895CF938D
:10005000DF93CDB7DEB728970FB6F894DEBF0FBE9B
:10006000CDBF98878F8380E690E0FC0180819181ED
:100070009A8389838F81988529813A81820F931F82
:100080009C838B838B819C81813E910590F4898137
:100090009A819E838D838B819C819A83898380E65C
:1000A00090E029813A81FC01318320838D819E81FA
:1000B00002C080E090E028960FB6F894DEBF0FBE35
:1000C000CDBFDF91CF910895CF93DF9300D0CDB70F
:1000D000DEB79A83898300000F900F90DF91CF9154
:1000E0000895CF93DF9300D0CDB7DEB786E090E0E0
:1000F000AEDF9A83898389819A810F900F90DF9177
:10010000CF910895CF93DF9300D0CDB7DEB79A8318
:10011000898389819A81D8DF00000F900F90DF9149
:10012000CF910895CF93DF9300D000D0CDB7DEB745
:100130009C838B8386E090E08ADF9A8389838B811E
:100140009C81FC012081318189819A81FC0131836C
:1001500020838B819C81FC012281338189819A815A
:10016000FC01338322838B819C81FC0124813581B6
:1001700089819A81FC013583248389819A810F903A
:100180000F900F900F90DF91CF910895CF93DF9351
:1001900000D000D0CDB7DEB74BDFA3DF9A838983D1
:1001A000A0DF9C838B8389819A812B813C81FC0118
:1001B0003383228389819A81FC0182819381A2DF2A
:1001C00089819A819FDF80E090E00F900F900F90DF
:0C01D0000F90DF91CF910895F894FFCFBD
:00000001FF
